{
  "contractName": "TroversePlanets",
  "abi": [
    {
      "inputs": [],
      "stateMutability": "nonpayable",
      "type": "constructor"
    },
    {
      "anonymous": false,
      "inputs": [
        {
          "indexed": true,
          "internalType": "address",
          "name": "owner",
          "type": "address"
        },
        {
          "indexed": true,
          "internalType": "address",
          "name": "approved",
          "type": "address"
        },
        {
          "indexed": true,
          "internalType": "uint256",
          "name": "tokenId",
          "type": "uint256"
        }
      ],
      "name": "Approval",
      "type": "event"
    },
    {
      "anonymous": false,
      "inputs": [
        {
          "indexed": true,
          "internalType": "address",
          "name": "owner",
          "type": "address"
        },
        {
          "indexed": true,
          "internalType": "address",
          "name": "operator",
          "type": "address"
        },
        {
          "indexed": false,
          "internalType": "bool",
          "name": "approved",
          "type": "bool"
        }
      ],
      "name": "ApprovalForAll",
      "type": "event"
    },
    {
      "anonymous": false,
      "inputs": [
        {
          "indexed": true,
          "internalType": "address",
          "name": "previousOwner",
          "type": "address"
        },
        {
          "indexed": true,
          "internalType": "address",
          "name": "newOwner",
          "type": "address"
        }
      ],
      "name": "OwnershipTransferred",
      "type": "event"
    },
    {
      "anonymous": false,
      "inputs": [
        {
          "indexed": true,
          "internalType": "address",
          "name": "from",
          "type": "address"
        },
        {
          "indexed": true,
          "internalType": "address",
          "name": "to",
          "type": "address"
        },
        {
          "indexed": true,
          "internalType": "uint256",
          "name": "tokenId",
          "type": "uint256"
        }
      ],
      "name": "Transfer",
      "type": "event"
    },
    {
      "inputs": [],
      "name": "MAX_PLANETS",
      "outputs": [
        {
          "internalType": "uint256",
          "name": "",
          "type": "uint256"
        }
      ],
      "stateMutability": "view",
      "type": "function"
    },
    {
      "inputs": [],
      "name": "METADATA_PROVENANCE_HASH",
      "outputs": [
        {
          "internalType": "string",
          "name": "",
          "type": "string"
        }
      ],
      "stateMutability": "view",
      "type": "function"
    },
    {
      "inputs": [],
      "name": "R",
      "outputs": [
        {
          "internalType": "string",
          "name": "",
          "type": "string"
        }
      ],
      "stateMutability": "view",
      "type": "function"
    },
    {
      "inputs": [
        {
          "internalType": "address",
          "name": "to",
          "type": "address"
        },
        {
          "internalType": "uint256",
          "name": "tokenId",
          "type": "uint256"
        }
      ],
      "name": "approve",
      "outputs": [],
      "stateMutability": "nonpayable",
      "type": "function"
    },
    {
      "inputs": [
        {
          "internalType": "address",
          "name": "owner",
          "type": "address"
        }
      ],
      "name": "balanceOf",
      "outputs": [
        {
          "internalType": "uint256",
          "name": "",
          "type": "uint256"
        }
      ],
      "stateMutability": "view",
      "type": "function"
    },
    {
      "inputs": [],
      "name": "baseURI",
      "outputs": [
        {
          "internalType": "string",
          "name": "",
          "type": "string"
        }
      ],
      "stateMutability": "view",
      "type": "function"
    },
    {
      "inputs": [
        {
          "internalType": "uint256",
          "name": "tokenId",
          "type": "uint256"
        }
      ],
      "name": "getApproved",
      "outputs": [
        {
          "internalType": "address",
          "name": "",
          "type": "address"
        }
      ],
      "stateMutability": "view",
      "type": "function"
    },
    {
      "inputs": [],
      "name": "hasSaleStarted",
      "outputs": [
        {
          "internalType": "bool",
          "name": "",
          "type": "bool"
        }
      ],
      "stateMutability": "view",
      "type": "function"
    },
    {
      "inputs": [
        {
          "internalType": "address",
          "name": "owner",
          "type": "address"
        },
        {
          "internalType": "address",
          "name": "operator",
          "type": "address"
        }
      ],
      "name": "isApprovedForAll",
      "outputs": [
        {
          "internalType": "bool",
          "name": "",
          "type": "bool"
        }
      ],
      "stateMutability": "view",
      "type": "function"
    },
    {
      "inputs": [],
      "name": "name",
      "outputs": [
        {
          "internalType": "string",
          "name": "",
          "type": "string"
        }
      ],
      "stateMutability": "view",
      "type": "function"
    },
    {
      "inputs": [],
      "name": "owner",
      "outputs": [
        {
          "internalType": "address",
          "name": "",
          "type": "address"
        }
      ],
      "stateMutability": "view",
      "type": "function"
    },
    {
      "inputs": [
        {
          "internalType": "uint256",
          "name": "tokenId",
          "type": "uint256"
        }
      ],
      "name": "ownerOf",
      "outputs": [
        {
          "internalType": "address",
          "name": "",
          "type": "address"
        }
      ],
      "stateMutability": "view",
      "type": "function"
    },
    {
      "inputs": [],
      "name": "renounceOwnership",
      "outputs": [],
      "stateMutability": "nonpayable",
      "type": "function"
    },
    {
      "inputs": [
        {
          "internalType": "address",
          "name": "from",
          "type": "address"
        },
        {
          "internalType": "address",
          "name": "to",
          "type": "address"
        },
        {
          "internalType": "uint256",
          "name": "tokenId",
          "type": "uint256"
        }
      ],
      "name": "safeTransferFrom",
      "outputs": [],
      "stateMutability": "nonpayable",
      "type": "function"
    },
    {
      "inputs": [
        {
          "internalType": "address",
          "name": "from",
          "type": "address"
        },
        {
          "internalType": "address",
          "name": "to",
          "type": "address"
        },
        {
          "internalType": "uint256",
          "name": "tokenId",
          "type": "uint256"
        },
        {
          "internalType": "bytes",
          "name": "_data",
          "type": "bytes"
        }
      ],
      "name": "safeTransferFrom",
      "outputs": [],
      "stateMutability": "nonpayable",
      "type": "function"
    },
    {
      "inputs": [
        {
          "internalType": "address",
          "name": "operator",
          "type": "address"
        },
        {
          "internalType": "bool",
          "name": "approved",
          "type": "bool"
        }
      ],
      "name": "setApprovalForAll",
      "outputs": [],
      "stateMutability": "nonpayable",
      "type": "function"
    },
    {
      "inputs": [
        {
          "internalType": "bytes4",
          "name": "interfaceId",
          "type": "bytes4"
        }
      ],
      "name": "supportsInterface",
      "outputs": [
        {
          "internalType": "bool",
          "name": "",
          "type": "bool"
        }
      ],
      "stateMutability": "view",
      "type": "function"
    },
    {
      "inputs": [],
      "name": "symbol",
      "outputs": [
        {
          "internalType": "string",
          "name": "",
          "type": "string"
        }
      ],
      "stateMutability": "view",
      "type": "function"
    },
    {
      "inputs": [
        {
          "internalType": "uint256",
          "name": "index",
          "type": "uint256"
        }
      ],
      "name": "tokenByIndex",
      "outputs": [
        {
          "internalType": "uint256",
          "name": "",
          "type": "uint256"
        }
      ],
      "stateMutability": "view",
      "type": "function"
    },
    {
      "inputs": [
        {
          "internalType": "address",
          "name": "owner",
          "type": "address"
        },
        {
          "internalType": "uint256",
          "name": "index",
          "type": "uint256"
        }
      ],
      "name": "tokenOfOwnerByIndex",
      "outputs": [
        {
          "internalType": "uint256",
          "name": "",
          "type": "uint256"
        }
      ],
      "stateMutability": "view",
      "type": "function"
    },
    {
      "inputs": [
        {
          "internalType": "uint256",
          "name": "tokenId",
          "type": "uint256"
        }
      ],
      "name": "tokenURI",
      "outputs": [
        {
          "internalType": "string",
          "name": "",
          "type": "string"
        }
      ],
      "stateMutability": "view",
      "type": "function"
    },
    {
      "inputs": [],
      "name": "totalSupply",
      "outputs": [
        {
          "internalType": "uint256",
          "name": "",
          "type": "uint256"
        }
      ],
      "stateMutability": "view",
      "type": "function"
    },
    {
      "inputs": [
        {
          "internalType": "address",
          "name": "from",
          "type": "address"
        },
        {
          "internalType": "address",
          "name": "to",
          "type": "address"
        },
        {
          "internalType": "uint256",
          "name": "tokenId",
          "type": "uint256"
        }
      ],
      "name": "transferFrom",
      "outputs": [],
      "stateMutability": "nonpayable",
      "type": "function"
    },
    {
      "inputs": [
        {
          "internalType": "address",
          "name": "newOwner",
          "type": "address"
        }
      ],
      "name": "transferOwnership",
      "outputs": [],
      "stateMutability": "nonpayable",
      "type": "function"
    },
    {
      "inputs": [
        {
          "internalType": "address",
          "name": "_owner",
          "type": "address"
        }
      ],
      "name": "tokensOfOwner",
      "outputs": [
        {
          "internalType": "uint256[]",
          "name": "",
          "type": "uint256[]"
        }
      ],
      "stateMutability": "view",
      "type": "function"
    },
    {
      "inputs": [],
      "name": "calculatePrice",
      "outputs": [
        {
          "internalType": "uint256",
          "name": "",
          "type": "uint256"
        }
      ],
      "stateMutability": "view",
      "type": "function"
    },
    {
      "inputs": [
        {
          "internalType": "uint256",
          "name": "numPlanets",
          "type": "uint256"
        }
      ],
      "name": "mintPlanet",
      "outputs": [],
      "stateMutability": "payable",
      "type": "function"
    },
    {
      "inputs": [
        {
          "internalType": "uint256",
          "name": "numPlanets",
          "type": "uint256"
        },
        {
          "internalType": "address",
          "name": "to",
          "type": "address"
        }
      ],
      "name": "reserve",
      "outputs": [],
      "stateMutability": "nonpayable",
      "type": "function"
    },
    {
      "inputs": [
        {
          "internalType": "string",
          "name": "_hash",
          "type": "string"
        }
      ],
      "name": "setProvenanceHash",
      "outputs": [],
      "stateMutability": "nonpayable",
      "type": "function"
    },
    {
      "inputs": [
        {
          "internalType": "string",
          "name": "baseURI",
          "type": "string"
        }
      ],
      "name": "setBaseURI",
      "outputs": [],
      "stateMutability": "nonpayable",
      "type": "function"
    },
    {
      "inputs": [],
      "name": "startSale",
      "outputs": [],
      "stateMutability": "nonpayable",
      "type": "function"
    },
    {
      "inputs": [],
      "name": "pauseSale",
      "outputs": [],
      "stateMutability": "nonpayable",
      "type": "function"
    },
    {
      "inputs": [],
      "name": "withdrawAll",
      "outputs": [],
      "stateMutability": "payable",
      "type": "function"
    },
    {
      "inputs": [
        {
          "internalType": "uint256",
          "name": "numPlanets",
          "type": "uint256"
        }
      ],
      "name": "reserveGiveaway",
      "outputs": [],
      "stateMutability": "nonpayable",
      "type": "function"
    }
  ],
  "bytecode": "0x60806040526000600a60146101000a81548160ff02191690831515021790555060405180602001604052806000815250600b9080519060200190620000469291906200031d565b503480156200005457600080fd5b506040518060400160405280601081526020017f54726f766572736520506c616e657473000000000000000000000000000000008152506040518060400160405280600281526020017f5450000000000000000000000000000000000000000000000000000000000000815250620000d96301ffc9a760e01b6200020c60201b60201c565b8160069080519060200190620000f19291906200031d565b5080600790805190602001906200010a9291906200031d565b50620001236380ac58cd60e01b6200020c60201b60201c565b6200013b635b5e139f60e01b6200020c60201b60201c565b6200015363780e9d6360e01b6200020c60201b60201c565b50506000620001676200031560201b60201c565b905080600a60006101000a81548173ffffffffffffffffffffffffffffffffffffffff021916908373ffffffffffffffffffffffffffffffffffffffff1602179055508073ffffffffffffffffffffffffffffffffffffffff16600073ffffffffffffffffffffffffffffffffffffffff167f8be0079c531659141344cd1fd0a4f28419497f9722a3daafe3b4186f6b6457e060405160405180910390a350620003c3565b63ffffffff60e01b817bffffffffffffffffffffffffffffffffffffffffffffffffffffffff19161415620002a9576040517f08c379a000000000000000000000000000000000000000000000000000000000815260040180806020018281038252601c8152602001807f4552433136353a20696e76616c696420696e746572666163652069640000000081525060200191505060405180910390fd5b6001600080837bffffffffffffffffffffffffffffffffffffffffffffffffffffffff19167bffffffffffffffffffffffffffffffffffffffffffffffffffffffff1916815260200190815260200160002060006101000a81548160ff02191690831515021790555050565b600033905090565b828054600181600116156101000203166002900490600052602060002090601f016020900481019282601f106200036057805160ff191683800117855562000391565b8280016001018555821562000391579182015b828111156200039057825182559160200191906001019062000373565b5b509050620003a09190620003a4565b5090565b5b80821115620003bf576000816000905550600101620003a5565b5090565b61443180620003d36000396000f3fe6080604052600436106101f95760003560e01c80636646d4571161010d578063a22cb465116100a0578063c87b56dd1161006f578063c87b56dd14610d68578063d348b40914610e1c578063e985e9c514610e47578063f0c9dc6014610ece578063f2fde38b14610f5e576101f9565b8063a22cb46514610ba7578063a40f1aa514610c04578063b66a0e5d14610c3f578063b88d4fde14610c56576101f9565b80638462151c116100dc5780638462151c14610a26578063853828b614610acc5780638da5cb5b14610ad657806395d89b4114610b17576101f9565b80636646d457146108ef5780636c0360eb1461091a57806370a08231146109aa578063715018a614610a0f576101f9565b806323b872dd116101905780634980e1be1161015f5780634980e1be146106cc5780634f6ccce71461075c57806355367ba9146107ab57806355f804b3146107c25780636352211e1461088a576101f9565b806323b872dd146105395780632f745c59146105b4578063390dab581461062357806342842e0e14610651576101f9565b8063095ea7b3116101cc578063095ea7b3146103be578063109695231461041957806318160ddd146104e15780631c8b232d1461050c576101f9565b806301ffc9a7146101fe57806303339bcb1461026e57806306fdde03146102c9578063081812fc14610359575b600080fd5b34801561020a57600080fd5b506102566004803603602081101561022157600080fd5b8101908080357bffffffffffffffffffffffffffffffffffffffffffffffffffffffff19169060200190929190505050610faf565b60405180821515815260200191505060405180910390f35b34801561027a57600080fd5b506102c76004803603604081101561029157600080fd5b8101908080359060200190929190803573ffffffffffffffffffffffffffffffffffffffff169060200190929190505050611016565b005b3480156102d557600080fd5b506102de611208565b6040518080602001828103825283818151815260200191508051906020019080838360005b8381101561031e578082015181840152602081019050610303565b50505050905090810190601f16801561034b5780820380516001836020036101000a031916815260200191505b509250505060405180910390f35b34801561036557600080fd5b506103926004803603602081101561037c57600080fd5b81019080803590602001909291905050506112aa565b604051808273ffffffffffffffffffffffffffffffffffffffff16815260200191505060405180910390f35b3480156103ca57600080fd5b50610417600480360360408110156103e157600080fd5b81019080803573ffffffffffffffffffffffffffffffffffffffff16906020019092919080359060200190929190505050611345565b005b34801561042557600080fd5b506104df6004803603602081101561043c57600080fd5b810190808035906020019064010000000081111561045957600080fd5b82018360208201111561046b57600080fd5b8035906020019184600183028401116401000000008311171561048d57600080fd5b91908080601f016020809104026020016040519081016040528093929190818152602001838380828437600081840152601f19601f820116905080830192505050505050509192919290505050611489565b005b3480156104ed57600080fd5b506104f6611552565b6040518082815260200191505060405180910390f35b34801561051857600080fd5b50610521611563565b60405180821515815260200191505060405180910390f35b34801561054557600080fd5b506105b26004803603606081101561055c57600080fd5b81019080803573ffffffffffffffffffffffffffffffffffffffff169060200190929190803573ffffffffffffffffffffffffffffffffffffffff16906020019092919080359060200190929190505050611576565b005b3480156105c057600080fd5b5061060d600480360360408110156105d757600080fd5b81019080803573ffffffffffffffffffffffffffffffffffffffff169060200190929190803590602001909291905050506115ec565b6040518082815260200191505060405180910390f35b61064f6004803603602081101561063957600080fd5b8101908080359060200190929190505050611647565b005b34801561065d57600080fd5b506106ca6004803603606081101561067457600080fd5b81019080803573ffffffffffffffffffffffffffffffffffffffff169060200190929190803573ffffffffffffffffffffffffffffffffffffffff16906020019092919080359060200190929190505050611861565b005b3480156106d857600080fd5b506106e1611881565b6040518080602001828103825283818151815260200191508051906020019080838360005b83811015610721578082015181840152602081019050610706565b50505050905090810190601f16801561074e5780820380516001836020036101000a031916815260200191505b509250505060405180910390f35b34801561076857600080fd5b506107956004803603602081101561077f57600080fd5b810190808035906020019092919050505061189d565b6040518082815260200191505060405180910390f35b3480156107b757600080fd5b506107c06118c0565b005b3480156107ce57600080fd5b50610888600480360360208110156107e557600080fd5b810190808035906020019064010000000081111561080257600080fd5b82018360208201111561081457600080fd5b8035906020019184600183028401116401000000008311171561083657600080fd5b91908080601f016020809104026020016040519081016040528093929190818152602001838380828437600081840152601f19601f82011690508083019250505050505050919291929050505061198c565b005b34801561089657600080fd5b506108c3600480360360208110156108ad57600080fd5b8101908080359060200190929190505050611a47565b604051808273ffffffffffffffffffffffffffffffffffffffff16815260200191505060405180910390f35b3480156108fb57600080fd5b50610904611a7e565b6040518082815260200191505060405180910390f35b34801561092657600080fd5b5061092f611a84565b6040518080602001828103825283818151815260200191508051906020019080838360005b8381101561096f578082015181840152602081019050610954565b50505050905090810190601f16801561099c5780820380516001836020036101000a031916815260200191505b509250505060405180910390f35b3480156109b657600080fd5b506109f9600480360360208110156109cd57600080fd5b81019080803573ffffffffffffffffffffffffffffffffffffffff169060200190929190505050611b26565b6040518082815260200191505060405180910390f35b348015610a1b57600080fd5b50610a24611bfb565b005b348015610a3257600080fd5b50610a7560048036036020811015610a4957600080fd5b81019080803573ffffffffffffffffffffffffffffffffffffffff169060200190929190505050611d6b565b6040518080602001828103825283818151815260200191508051906020019060200280838360005b83811015610ab8578082015181840152602081019050610a9d565b505050509050019250505060405180910390f35b610ad4611e64565b005b348015610ae257600080fd5b50610aeb611f53565b604051808273ffffffffffffffffffffffffffffffffffffffff16815260200191505060405180910390f35b348015610b2357600080fd5b50610b2c611f7d565b6040518080602001828103825283818151815260200191508051906020019080838360005b83811015610b6c578082015181840152602081019050610b51565b50505050905090810190601f168015610b995780820380516001836020036101000a031916815260200191505b509250505060405180910390f35b348015610bb357600080fd5b50610c0260048036036040811015610bca57600080fd5b81019080803573ffffffffffffffffffffffffffffffffffffffff16906020019092919080351515906020019092919050505061201f565b005b348015610c1057600080fd5b50610c3d60048036036020811015610c2757600080fd5b81019080803590602001909291905050506121d5565b005b348015610c4b57600080fd5b50610c54612350565b005b348015610c6257600080fd5b50610d6660048036036080811015610c7957600080fd5b81019080803573ffffffffffffffffffffffffffffffffffffffff169060200190929190803573ffffffffffffffffffffffffffffffffffffffff1690602001909291908035906020019092919080359060200190640100000000811115610ce057600080fd5b820183602082011115610cf257600080fd5b80359060200191846001830284011164010000000083111715610d1457600080fd5b91908080601f016020809104026020016040519081016040528093929190818152602001838380828437600081840152601f19601f82011690508083019250505050505050919291929050505061241c565b005b348015610d7457600080fd5b50610da160048036036020811015610d8b57600080fd5b8101908080359060200190929190505050612494565b6040518080602001828103825283818151815260200191508051906020019080838360005b83811015610de1578082015181840152602081019050610dc6565b50505050905090810190601f168015610e0e5780820380516001836020036101000a031916815260200191505b509250505060405180910390f35b348015610e2857600080fd5b50610e31612765565b6040518082815260200191505060405180910390f35b348015610e5357600080fd5b50610eb660048036036040811015610e6a57600080fd5b81019080803573ffffffffffffffffffffffffffffffffffffffff169060200190929190803573ffffffffffffffffffffffffffffffffffffffff169060200190929190505050612924565b60405180821515815260200191505060405180910390f35b348015610eda57600080fd5b50610ee36129b8565b6040518080602001828103825283818151815260200191508051906020019080838360005b83811015610f23578082015181840152602081019050610f08565b50505050905090810190601f168015610f505780820380516001836020036101000a031916815260200191505b509250505060405180910390f35b348015610f6a57600080fd5b50610fad60048036036020811015610f8157600080fd5b81019080803573ffffffffffffffffffffffffffffffffffffffff169060200190929190505050612a56565b005b6000806000837bffffffffffffffffffffffffffffffffffffffffffffffffffffffff19167bffffffffffffffffffffffffffffffffffffffffffffffffffffffff1916815260200190815260200160002060009054906101000a900460ff169050919050565b61101e612c4b565b73ffffffffffffffffffffffffffffffffffffffff1661103c611f53565b73ffffffffffffffffffffffffffffffffffffffff16146110c5576040517f08c379a00000000000000000000000000000000000000000000000000000000081526004018080602001828103825260208152602001807f4f776e61626c653a2063616c6c6572206973206e6f7420746865206f776e657281525060200191505060405180910390fd5b6127106110d0611552565b10611143576040517f08c379a000000000000000000000000000000000000000000000000000000000815260040180806020018281038252601a8152602001807f416c6c20506c616e6574732068617665206265656e20736f6c6400000000000081525060200191505060405180910390fd5b61271061116083611152611552565b612c5390919063ffffffff16565b11156111d4576040517f08c379a00000000000000000000000000000000000000000000000000000000081526004018080602001828103825260138152602001807f45786365656473204d41585f504c414e4554530000000000000000000000000081525060200191505060405180910390fd5b60005b828110156112035760006111e9611552565b90506111f58382612cdb565b5080806001019150506111d7565b505050565b606060068054600181600116156101000203166002900480601f0160208091040260200160405190810160405280929190818152602001828054600181600116156101000203166002900480156112a05780601f10611275576101008083540402835291602001916112a0565b820191906000526020600020905b81548152906001019060200180831161128357829003601f168201915b5050505050905090565b60006112b582612cf9565b61130a576040517f08c379a000000000000000000000000000000000000000000000000000000000815260040180806020018281038252602c8152602001806142eb602c913960400191505060405180910390fd5b6004600083815260200190815260200160002060009054906101000a900473ffffffffffffffffffffffffffffffffffffffff169050919050565b600061135082611a47565b90508073ffffffffffffffffffffffffffffffffffffffff168373ffffffffffffffffffffffffffffffffffffffff1614156113d7576040517f08c379a000000000000000000000000000000000000000000000000000000000815260040180806020018281038252602181526020018061436f6021913960400191505060405180910390fd5b8073ffffffffffffffffffffffffffffffffffffffff166113f6612c4b565b73ffffffffffffffffffffffffffffffffffffffff16148061142557506114248161141f612c4b565b612924565b5b61147a576040517f08c379a00000000000000000000000000000000000000000000000000000000081526004018080602001828103825260388152602001806141d06038913960400191505060405180910390fd5b6114848383612d16565b505050565b611491612c4b565b73ffffffffffffffffffffffffffffffffffffffff166114af611f53565b73ffffffffffffffffffffffffffffffffffffffff1614611538576040517f08c379a00000000000000000000000000000000000000000000000000000000081526004018080602001828103825260208152602001807f4f776e61626c653a2063616c6c6572206973206e6f7420746865206f776e657281525060200191505060405180910390fd5b80600b908051906020019061154e929190614042565b5050565b600061155e6002612dcf565b905090565b600a60149054906101000a900460ff1681565b611587611581612c4b565b82612de4565b6115dc576040517f08c379a00000000000000000000000000000000000000000000000000000000081526004018080602001828103825260318152602001806143906031913960400191505060405180910390fd5b6115e7838383612ed8565b505050565b600061163f82600160008673ffffffffffffffffffffffffffffffffffffffff1673ffffffffffffffffffffffffffffffffffffffff16815260200190815260200160002061311b90919063ffffffff16565b905092915050565b612710611652611552565b106116c5576040517f08c379a000000000000000000000000000000000000000000000000000000000815260040180806020018281038252601a8152602001807f416c6c20506c616e6574732068617665206265656e20736f6c6400000000000081525060200191505060405180910390fd5b6000811180156116d6575060148111155b61172b576040517f08c379a000000000000000000000000000000000000000000000000000000000815260040180806020018281038252602a8152602001806142a0602a913960400191505060405180910390fd5b6127106117488261173a611552565b612c5390919063ffffffff16565b11156117bc576040517f08c379a00000000000000000000000000000000000000000000000000000000081526004018080602001828103825260138152602001807f45786365656473204d41585f504c414e4554530000000000000000000000000081525060200191505060405180910390fd5b6117d6816117c8612765565b61313590919063ffffffff16565b34101561182e576040517f08c379a000000000000000000000000000000000000000000000000000000000815260040180806020018281038252602381526020018061425b6023913960400191505060405180910390fd5b60005b8181101561185d576000611843611552565b905061184f3382612cdb565b508080600101915050611831565b5050565b61187c8383836040518060200160405280600081525061241c565b505050565b6040518060600160405280603b81526020016143c1603b913981565b6000806118b48360026131bb90919063ffffffff16565b50905080915050919050565b6118c8612c4b565b73ffffffffffffffffffffffffffffffffffffffff166118e6611f53565b73ffffffffffffffffffffffffffffffffffffffff161461196f576040517f08c379a00000000000000000000000000000000000000000000000000000000081526004018080602001828103825260208152602001807f4f776e61626c653a2063616c6c6572206973206e6f7420746865206f776e657281525060200191505060405180910390fd5b6000600a60146101000a81548160ff021916908315150217905550565b611994612c4b565b73ffffffffffffffffffffffffffffffffffffffff166119b2611f53565b73ffffffffffffffffffffffffffffffffffffffff1614611a3b576040517f08c379a00000000000000000000000000000000000000000000000000000000081526004018080602001828103825260208152602001807f4f776e61626c653a2063616c6c6572206973206e6f7420746865206f776e657281525060200191505060405180910390fd5b611a44816131e7565b50565b6000611a77826040518060600160405280602981526020016142326029913960026132019092919063ffffffff16565b9050919050565b61271081565b606060098054600181600116156101000203166002900480601f016020809104026020016040519081016040528092919081815260200182805460018160011615610100020316600290048015611b1c5780601f10611af157610100808354040283529160200191611b1c565b820191906000526020600020905b815481529060010190602001808311611aff57829003601f168201915b5050505050905090565b60008073ffffffffffffffffffffffffffffffffffffffff168273ffffffffffffffffffffffffffffffffffffffff161415611bad576040517f08c379a000000000000000000000000000000000000000000000000000000000815260040180806020018281038252602a815260200180614208602a913960400191505060405180910390fd5b611bf4600160008473ffffffffffffffffffffffffffffffffffffffff1673ffffffffffffffffffffffffffffffffffffffff168152602001908152602001600020613220565b9050919050565b611c03612c4b565b73ffffffffffffffffffffffffffffffffffffffff16611c21611f53565b73ffffffffffffffffffffffffffffffffffffffff1614611caa576040517f08c379a00000000000000000000000000000000000000000000000000000000081526004018080602001828103825260208152602001807f4f776e61626c653a2063616c6c6572206973206e6f7420746865206f776e657281525060200191505060405180910390fd5b600073ffffffffffffffffffffffffffffffffffffffff16600a60009054906101000a900473ffffffffffffffffffffffffffffffffffffffff1673ffffffffffffffffffffffffffffffffffffffff167f8be0079c531659141344cd1fd0a4f28419497f9722a3daafe3b4186f6b6457e060405160405180910390a36000600a60006101000a81548173ffffffffffffffffffffffffffffffffffffffff021916908373ffffffffffffffffffffffffffffffffffffffff160217905550565b60606000611d7883611b26565b90506000811415611dd357600067ffffffffffffffff81118015611d9b57600080fd5b50604051908082528060200260200182016040528015611dca5781602001602082028036833780820191505090505b50915050611e5f565b60608167ffffffffffffffff81118015611dec57600080fd5b50604051908082528060200260200182016040528015611e1b5781602001602082028036833780820191505090505b50905060005b82811015611e5857611e3385826115ec565b828281518110611e3f57fe5b6020026020010181815250508080600101915050611e21565b8193505050505b919050565b611e6c612c4b565b73ffffffffffffffffffffffffffffffffffffffff16611e8a611f53565b73ffffffffffffffffffffffffffffffffffffffff1614611f13576040517f08c379a00000000000000000000000000000000000000000000000000000000081526004018080602001828103825260208152602001807f4f776e61626c653a2063616c6c6572206973206e6f7420746865206f776e657281525060200191505060405180910390fd5b3373ffffffffffffffffffffffffffffffffffffffff166108fc479081150290604051600060405180830381858888f19350505050611f5157600080fd5b565b6000600a60009054906101000a900473ffffffffffffffffffffffffffffffffffffffff16905090565b606060078054600181600116156101000203166002900480601f0160208091040260200160405190810160405280929190818152602001828054600181600116156101000203166002900480156120155780601f10611fea57610100808354040283529160200191612015565b820191906000526020600020905b815481529060010190602001808311611ff857829003601f168201915b5050505050905090565b612027612c4b565b73ffffffffffffffffffffffffffffffffffffffff168273ffffffffffffffffffffffffffffffffffffffff1614156120c8576040517f08c379a00000000000000000000000000000000000000000000000000000000081526004018080602001828103825260198152602001807f4552433732313a20617070726f766520746f2063616c6c65720000000000000081525060200191505060405180910390fd5b80600560006120d5612c4b565b73ffffffffffffffffffffffffffffffffffffffff1673ffffffffffffffffffffffffffffffffffffffff16815260200190815260200160002060008473ffffffffffffffffffffffffffffffffffffffff1673ffffffffffffffffffffffffffffffffffffffff16815260200190815260200160002060006101000a81548160ff0219169083151502179055508173ffffffffffffffffffffffffffffffffffffffff16612182612c4b565b73ffffffffffffffffffffffffffffffffffffffff167f17307eab39ab6107e8899845ad3d59bd9653f200f220920489ca2b5937696c318360405180821515815260200191505060405180910390a35050565b6121dd612c4b565b73ffffffffffffffffffffffffffffffffffffffff166121fb611f53565b73ffffffffffffffffffffffffffffffffffffffff1614612284576040517f08c379a00000000000000000000000000000000000000000000000000000000081526004018080602001828103825260208152602001807f4f776e61626c653a2063616c6c6572206973206e6f7420746865206f776e657281525060200191505060405180910390fd5b600061228e611552565b9050601e6122ac8361229e611552565b612c5390919063ffffffff16565b1115612320576040517f08c379a00000000000000000000000000000000000000000000000000000000081526004018080602001828103825260188152602001807f457863656564656420676976656177617920737570706c79000000000000000081525060200191505060405180910390fd5b60005b8281101561234b5761233e612336611f53565b828401612cdb565b8080600101915050612323565b505050565b612358612c4b565b73ffffffffffffffffffffffffffffffffffffffff16612376611f53565b73ffffffffffffffffffffffffffffffffffffffff16146123ff576040517f08c379a00000000000000000000000000000000000000000000000000000000081526004018080602001828103825260208152602001807f4f776e61626c653a2063616c6c6572206973206e6f7420746865206f776e657281525060200191505060405180910390fd5b6001600a60146101000a81548160ff021916908315150217905550565b61242d612427612c4b565b83612de4565b612482576040517f08c379a00000000000000000000000000000000000000000000000000000000081526004018080602001828103825260318152602001806143906031913960400191505060405180910390fd5b61248e84848484613235565b50505050565b606061249f82612cf9565b6124f4576040517f08c379a000000000000000000000000000000000000000000000000000000000815260040180806020018281038252602f815260200180614340602f913960400191505060405180910390fd5b6060600860008481526020019081526020016000208054600181600116156101000203166002900480601f01602080910402602001604051908101604052809291908181526020018280546001816001161561010002031660029004801561259d5780601f106125725761010080835404028352916020019161259d565b820191906000526020600020905b81548152906001019060200180831161258057829003601f168201915b5050505050905060606125ae611a84565b90506000815114156125c4578192505050612760565b6000825111156126955780826040516020018083805190602001908083835b6020831061260657805182526020820191506020810190506020830392506125e3565b6001836020036101000a03801982511681845116808217855250505050505090500182805190602001908083835b602083106126575780518252602082019150602081019050602083039250612634565b6001836020036101000a0380198251168184511680821785525050505050509050019250505060405160208183030381529060405292505050612760565b8061269f856132a7565b6040516020018083805190602001908083835b602083106126d557805182526020820191506020810190506020830392506126b2565b6001836020036101000a03801982511681845116808217855250505050505090500182805190602001908083835b602083106127265780518252602082019150602081019050602083039250612703565b6001836020036101000a03801982511681845116808217855250505050505090500192505050604051602081830303815290604052925050505b919050565b600060011515600a60149054906101000a900460ff161515146127f0576040517f08c379a00000000000000000000000000000000000000000000000000000000081526004018080602001828103825260138152602001807f53616c65206861736e277420737461727465640000000000000000000000000081525060200191505060405180910390fd5b6127106127fb611552565b1061286e576040517f08c379a000000000000000000000000000000000000000000000000000000000815260040180806020018281038252601a8152602001807f416c6c20506c616e6574732068617665206265656e20736f6c6400000000000081525060200191505060405180910390fd5b6000612878611552565b90506126ac811061289457670de0b6b3a7640000915050612921565b61251c81106128ae576708e1bc9bf0400000915050612921565b611d4c81106128c857670470de4df8200000915050612921565b610dac81106128e2576702386f26fc100000915050612921565b6105dc81106128fc5767011c37937e080000915050612921565b6101f4811061291557668e1bc9bf040000915050612921565b66470de4df8200009150505b90565b6000600560008473ffffffffffffffffffffffffffffffffffffffff1673ffffffffffffffffffffffffffffffffffffffff16815260200190815260200160002060008373ffffffffffffffffffffffffffffffffffffffff1673ffffffffffffffffffffffffffffffffffffffff16815260200190815260200160002060009054906101000a900460ff16905092915050565b600b8054600181600116156101000203166002900480601f016020809104026020016040519081016040528092919081815260200182805460018160011615610100020316600290048015612a4e5780601f10612a2357610100808354040283529160200191612a4e565b820191906000526020600020905b815481529060010190602001808311612a3157829003601f168201915b505050505081565b612a5e612c4b565b73ffffffffffffffffffffffffffffffffffffffff16612a7c611f53565b73ffffffffffffffffffffffffffffffffffffffff1614612b05576040517f08c379a00000000000000000000000000000000000000000000000000000000081526004018080602001828103825260208152602001807f4f776e61626c653a2063616c6c6572206973206e6f7420746865206f776e657281525060200191505060405180910390fd5b600073ffffffffffffffffffffffffffffffffffffffff168173ffffffffffffffffffffffffffffffffffffffff161415612b8b576040517f08c379a00000000000000000000000000000000000000000000000000000000081526004018080602001828103825260268152602001806141346026913960400191505060405180910390fd5b8073ffffffffffffffffffffffffffffffffffffffff16600a60009054906101000a900473ffffffffffffffffffffffffffffffffffffffff1673ffffffffffffffffffffffffffffffffffffffff167f8be0079c531659141344cd1fd0a4f28419497f9722a3daafe3b4186f6b6457e060405160405180910390a380600a60006101000a81548173ffffffffffffffffffffffffffffffffffffffff021916908373ffffffffffffffffffffffffffffffffffffffff16021790555050565b600033905090565b600080828401905083811015612cd1576040517f08c379a000000000000000000000000000000000000000000000000000000000815260040180806020018281038252601b8152602001807f536166654d6174683a206164646974696f6e206f766572666c6f77000000000081525060200191505060405180910390fd5b8091505092915050565b612cf58282604051806020016040528060008152506133ee565b5050565b6000612d0f82600261345f90919063ffffffff16565b9050919050565b816004600083815260200190815260200160002060006101000a81548173ffffffffffffffffffffffffffffffffffffffff021916908373ffffffffffffffffffffffffffffffffffffffff160217905550808273ffffffffffffffffffffffffffffffffffffffff16612d8983611a47565b73ffffffffffffffffffffffffffffffffffffffff167f8c5be1e5ebec7d5bd14f71427d1e84f3dd0314c0f7b2291e5b200ac8c7c3b92560405160405180910390a45050565b6000612ddd82600001613479565b9050919050565b6000612def82612cf9565b612e44576040517f08c379a000000000000000000000000000000000000000000000000000000000815260040180806020018281038252602c8152602001806141a4602c913960400191505060405180910390fd5b6000612e4f83611a47565b90508073ffffffffffffffffffffffffffffffffffffffff168473ffffffffffffffffffffffffffffffffffffffff161480612ebe57508373ffffffffffffffffffffffffffffffffffffffff16612ea6846112aa565b73ffffffffffffffffffffffffffffffffffffffff16145b80612ecf5750612ece8185612924565b5b91505092915050565b8273ffffffffffffffffffffffffffffffffffffffff16612ef882611a47565b73ffffffffffffffffffffffffffffffffffffffff1614612f64576040517f08c379a00000000000000000000000000000000000000000000000000000000081526004018080602001828103825260298152602001806143176029913960400191505060405180910390fd5b600073ffffffffffffffffffffffffffffffffffffffff168273ffffffffffffffffffffffffffffffffffffffff161415612fea576040517f08c379a000000000000000000000000000000000000000000000000000000000815260040180806020018281038252602481526020018061415a6024913960400191505060405180910390fd5b612ff583838361348a565b613000600082612d16565b61305181600160008673ffffffffffffffffffffffffffffffffffffffff1673ffffffffffffffffffffffffffffffffffffffff16815260200190815260200160002061348f90919063ffffffff16565b506130a381600160008573ffffffffffffffffffffffffffffffffffffffff1673ffffffffffffffffffffffffffffffffffffffff1681526020019081526020016000206134a990919063ffffffff16565b506130ba818360026134c39092919063ffffffff16565b50808273ffffffffffffffffffffffffffffffffffffffff168473ffffffffffffffffffffffffffffffffffffffff167fddf252ad1be2c89b69c2b068fc378daa952ba7f163c4a11628f55a4df523b3ef60405160405180910390a4505050565b600061312a83600001836134f8565b60001c905092915050565b60008083141561314857600090506131b5565b600082840290508284828161315957fe5b04146131b0576040517f08c379a00000000000000000000000000000000000000000000000000000000081526004018080602001828103825260218152602001806142ca6021913960400191505060405180910390fd5b809150505b92915050565b6000806000806131ce866000018661357b565b915091508160001c8160001c9350935050509250929050565b80600990805190602001906131fd929190614042565b5050565b6000613214846000018460001b84613614565b60001c90509392505050565b600061322e8260000161370a565b9050919050565b613240848484612ed8565b61324c8484848461371b565b6132a1576040517f08c379a00000000000000000000000000000000000000000000000000000000081526004018080602001828103825260328152602001806141026032913960400191505060405180910390fd5b50505050565b606060008214156132ef576040518060400160405280600181526020017f300000000000000000000000000000000000000000000000000000000000000081525090506133e9565b600082905060005b60008214613319578080600101915050600a828161331157fe5b0491506132f7565b60608167ffffffffffffffff8111801561333257600080fd5b506040519080825280601f01601f1916602001820160405280156133655781602001600182028036833780820191505090505b50905060006001830390508593505b600084146133e157600a848161338657fe5b0660300160f81b828280600190039350815181106133a057fe5b60200101907effffffffffffffffffffffffffffffffffffffffffffffffffffffffffffff1916908160001a905350600a84816133d957fe5b049350613374565b819450505050505b919050565b6133f88383613934565b613405600084848461371b565b61345a576040517f08c379a00000000000000000000000000000000000000000000000000000000081526004018080602001828103825260328152602001806141026032913960400191505060405180910390fd5b505050565b6000613471836000018360001b613b28565b905092915050565b600081600001805490509050919050565b505050565b60006134a1836000018360001b613b4b565b905092915050565b60006134bb836000018360001b613c33565b905092915050565b60006134ef846000018460001b8473ffffffffffffffffffffffffffffffffffffffff1660001b613ca3565b90509392505050565b600081836000018054905011613559576040517f08c379a00000000000000000000000000000000000000000000000000000000081526004018080602001828103825260228152602001806140e06022913960400191505060405180910390fd5b82600001828154811061356857fe5b9060005260206000200154905092915050565b600080828460000180549050116135dd576040517f08c379a000000000000000000000000000000000000000000000000000000000815260040180806020018281038252602281526020018061427e6022913960400191505060405180910390fd5b60008460000184815481106135ee57fe5b906000526020600020906002020190508060000154816001015492509250509250929050565b600080846001016000858152602001908152602001600020549050600081141583906136db576040517f08c379a00000000000000000000000000000000000000000000000000000000081526004018080602001828103825283818151815260200191508051906020019080838360005b838110156136a0578082015181840152602081019050613685565b50505050905090810190601f1680156136cd5780820380516001836020036101000a031916815260200191505b509250505060405180910390fd5b508460000160018203815481106136ee57fe5b9060005260206000209060020201600101549150509392505050565b600081600001805490509050919050565b600061373c8473ffffffffffffffffffffffffffffffffffffffff16613d7f565b613749576001905061392c565b60606138b363150b7a0260e01b61375e612c4b565b888787604051602401808573ffffffffffffffffffffffffffffffffffffffff1681526020018473ffffffffffffffffffffffffffffffffffffffff16815260200183815260200180602001828103825283818151815260200191508051906020019080838360005b838110156137e25780820151818401526020810190506137c7565b50505050905090810190601f16801561380f5780820380516001836020036101000a031916815260200191505b5095505050505050604051602081830303815290604052907bffffffffffffffffffffffffffffffffffffffffffffffffffffffff19166020820180517bffffffffffffffffffffffffffffffffffffffffffffffffffffffff8381831617835250505050604051806060016040528060328152602001614102603291398773ffffffffffffffffffffffffffffffffffffffff16613d929092919063ffffffff16565b905060008180602001905160208110156138cc57600080fd5b8101908080519060200190929190505050905063150b7a0260e01b7bffffffffffffffffffffffffffffffffffffffffffffffffffffffff1916817bffffffffffffffffffffffffffffffffffffffffffffffffffffffff191614925050505b949350505050565b600073ffffffffffffffffffffffffffffffffffffffff168273ffffffffffffffffffffffffffffffffffffffff1614156139d7576040517f08c379a00000000000000000000000000000000000000000000000000000000081526004018080602001828103825260208152602001807f4552433732313a206d696e7420746f20746865207a65726f206164647265737381525060200191505060405180910390fd5b6139e081612cf9565b15613a53576040517f08c379a000000000000000000000000000000000000000000000000000000000815260040180806020018281038252601c8152602001807f4552433732313a20746f6b656e20616c7265616479206d696e7465640000000081525060200191505060405180910390fd5b613a5f6000838361348a565b613ab081600160008573ffffffffffffffffffffffffffffffffffffffff1673ffffffffffffffffffffffffffffffffffffffff1681526020019081526020016000206134a990919063ffffffff16565b50613ac7818360026134c39092919063ffffffff16565b50808273ffffffffffffffffffffffffffffffffffffffff16600073ffffffffffffffffffffffffffffffffffffffff167fddf252ad1be2c89b69c2b068fc378daa952ba7f163c4a11628f55a4df523b3ef60405160405180910390a45050565b600080836001016000848152602001908152602001600020541415905092915050565b60008083600101600084815260200190815260200160002054905060008114613c275760006001820390506000600186600001805490500390506000866000018281548110613b9657fe5b9060005260206000200154905080876000018481548110613bb357fe5b9060005260206000200181905550600183018760010160008381526020019081526020016000208190555086600001805480613beb57fe5b60019003818190600052602060002001600090559055866001016000878152602001908152602001600020600090556001945050505050613c2d565b60009150505b92915050565b6000613c3f8383613daa565b613c98578260000182908060018154018082558091505060019003906000526020600020016000909190919091505582600001805490508360010160008481526020019081526020016000208190555060019050613c9d565b600090505b92915050565b6000808460010160008581526020019081526020016000205490506000811415613d4a57846000016040518060400160405280868152602001858152509080600181540180825580915050600190039060005260206000209060020201600090919091909150600082015181600001556020820151816001015550508460000180549050856001016000868152602001908152602001600020819055506001915050613d78565b82856000016001830381548110613d5d57fe5b90600052602060002090600202016001018190555060009150505b9392505050565b600080823b905060008111915050919050565b6060613da18484600085613dcd565b90509392505050565b600080836001016000848152602001908152602001600020541415905092915050565b606082471015613e28576040517f08c379a000000000000000000000000000000000000000000000000000000000815260040180806020018281038252602681526020018061417e6026913960400191505060405180910390fd5b613e3185613d7f565b613ea3576040517f08c379a000000000000000000000000000000000000000000000000000000000815260040180806020018281038252601d8152602001807f416464726573733a2063616c6c20746f206e6f6e2d636f6e747261637400000081525060200191505060405180910390fd5b600060608673ffffffffffffffffffffffffffffffffffffffff1685876040518082805190602001908083835b60208310613ef35780518252602082019150602081019050602083039250613ed0565b6001836020036101000a03801982511681845116808217855250505050505090500191505060006040518083038185875af1925050503d8060008114613f55576040519150601f19603f3d011682016040523d82523d6000602084013e613f5a565b606091505b5091509150613f6a828286613f76565b92505050949350505050565b60608315613f865782905061403b565b600083511115613f995782518084602001fd5b816040517f08c379a00000000000000000000000000000000000000000000000000000000081526004018080602001828103825283818151815260200191508051906020019080838360005b83811015614000578082015181840152602081019050613fe5565b50505050905090810190601f16801561402d5780820380516001836020036101000a031916815260200191505b509250505060405180910390fd5b9392505050565b828054600181600116156101000203166002900490600052602060002090601f016020900481019282601f1061408357805160ff19168380011785556140b1565b828001600101855582156140b1579182015b828111156140b0578251825591602001919060010190614095565b5b5090506140be91906140c2565b5090565b5b808211156140db5760008160009055506001016140c3565b509056fe456e756d657261626c655365743a20696e646578206f7574206f6620626f756e64734552433732313a207472616e7366657220746f206e6f6e20455243373231526563656976657220696d706c656d656e7465724f776e61626c653a206e6577206f776e657220697320746865207a65726f20616464726573734552433732313a207472616e7366657220746f20746865207a65726f2061646472657373416464726573733a20696e73756666696369656e742062616c616e636520666f722063616c6c4552433732313a206f70657261746f7220717565727920666f72206e6f6e6578697374656e7420746f6b656e4552433732313a20617070726f76652063616c6c6572206973206e6f74206f776e6572206e6f7220617070726f76656420666f7220616c6c4552433732313a2062616c616e636520717565727920666f7220746865207a65726f20616464726573734552433732313a206f776e657220717565727920666f72206e6f6e6578697374656e7420746f6b656e45746865722076616c75652073656e742069732062656c6f7720746865207072696365456e756d657261626c654d61703a20696e646578206f7574206f6620626f756e6473596f752063616e206d696e74206d696e696d756d20312c206d6178696d756d20323020506c616e657473536166654d6174683a206d756c7469706c69636174696f6e206f766572666c6f774552433732313a20617070726f76656420717565727920666f72206e6f6e6578697374656e7420746f6b656e4552433732313a207472616e73666572206f6620746f6b656e2074686174206973206e6f74206f776e4552433732314d657461646174613a2055524920717565727920666f72206e6f6e6578697374656e7420746f6b656e4552433732313a20617070726f76616c20746f2063757272656e74206f776e65724552433732313a207472616e736665722063616c6c6572206973206e6f74206f776e6572206e6f7220617070726f76656454726f766572736520506c616e657473206172652074686520706c616e6574204e46547320696e207468652054726f766572736520576f726c6421a264697066735822122037fa050df855225e69d76ffa0c7cc67f68aa34e89a0bf317aa13108a1d6b205364736f6c63430007000033",
  "immutableReferences": {},
  "source": "\r\n// File: contracts/TroversePlanets.sol\r\n\r\n// contracts/TroversePlanets.sol\r\npragma solidity ^0.7.0;\r\n\r\nimport \"../contracts/requirements.sol\";\r\n\r\n\r\n// Inspired/Copied from BGANPUNKS V2 (bastardganpunks.club)\r\ncontract TroversePlanets is ERC721, Ownable {\r\n    using SafeMath for uint256;\r\n    uint public constant MAX_PLANETS = 10000;\r\n    bool public hasSaleStarted = false;\r\n    \r\n    // The IPFS hash for all Troverse Planets concatenated *might* stored here once all Troverse Planets are issued\r\n    string public METADATA_PROVENANCE_HASH = \"\";\r\n\r\n    // Description\r\n    string public constant R = \"Troverse Planets are the planet NFTs in the Troverse World!\";\r\n\r\n    constructor() ERC721(\"Troverse Planets\",\"TP\")  {\r\n    }\r\n    \r\n    function tokensOfOwner(address _owner) external view returns(uint256[] memory ) {\r\n        uint256 tokenCount = balanceOf(_owner);\r\n        if (tokenCount == 0) {\r\n            // Return an empty array\r\n            return new uint256[](0);\r\n        } else {\r\n            uint256[] memory result = new uint256[](tokenCount);\r\n            uint256 index;\r\n            for (index = 0; index < tokenCount; index++) {\r\n                result[index] = tokenOfOwnerByIndex(_owner, index);\r\n            }\r\n            return result;\r\n        }\r\n    }\r\n    \r\n    function calculatePrice() public view returns (uint256) {\r\n        require(hasSaleStarted == true, \"Sale hasn't started\");\r\n        require(totalSupply() < MAX_PLANETS, \"All Planets have been sold\");\r\n\r\n        uint currentSupply = totalSupply();\r\n        if (currentSupply >= 9900) {\r\n            return 1000000000000000000;        // 9900 - 10000: 1.00 ETH\r\n        } else if (currentSupply >= 9500) {\r\n            return 640000000000000000;         // 9500 - 9900:  0.64 ETH\r\n        } else if (currentSupply >= 7500) {\r\n            return 320000000000000000;         // 7500 - 9500:  0.32 ETH\r\n        } else if (currentSupply >= 3500) {\r\n            return 160000000000000000;         // 3500 - 7500:  0.16 ETH\r\n        } else if (currentSupply >= 1500) {\r\n            return 80000000000000000;          // 1500 - 3500:  0.08 ETH \r\n        } else if (currentSupply >= 500) {\r\n            return 40000000000000000;          // 500 - 1500:   0.04 ETH \r\n        } else {\r\n            return 20000000000000000;          // 0 - 500:     0.02 ETH\r\n        }\r\n    }\r\n    \r\n    function mintPlanet(uint256 numPlanets) public payable {\r\n        require(totalSupply() < MAX_PLANETS, \"All Planets have been sold\");\r\n        require(numPlanets > 0 && numPlanets <= 20, \"You can mint minimum 1, maximum 20 Planets\");\r\n        require(totalSupply().add(numPlanets) <= MAX_PLANETS, \"Exceeds MAX_PLANETS\");\r\n        require(msg.value >= calculatePrice().mul(numPlanets), \"Ether value sent is below the price\");\r\n\r\n        for (uint i = 0; i < numPlanets; i++) {\r\n            uint mintIndex = totalSupply();\r\n            _safeMint(msg.sender, mintIndex);\r\n        }\r\n    }\r\n    \r\n    function reserve(uint256 numPlanets, address to) public onlyOwner {\r\n        require(totalSupply() < MAX_PLANETS, \"All Planets have been sold\");\r\n        require(totalSupply().add(numPlanets) <= MAX_PLANETS, \"Exceeds MAX_PLANETS\");\r\n\r\n        for (uint i = 0; i < numPlanets; i++) {\r\n            uint mintIndex = totalSupply();\r\n            _safeMint(to, mintIndex);\r\n        }\r\n    }\r\n    \r\n    // God Mode\r\n    function setProvenanceHash(string memory _hash) public onlyOwner {\r\n        METADATA_PROVENANCE_HASH = _hash;\r\n    }\r\n    \r\n    function setBaseURI(string memory baseURI) public onlyOwner {\r\n        _setBaseURI(baseURI);\r\n    }\r\n    \r\n    function startSale() public onlyOwner {\r\n        hasSaleStarted = true;\r\n    }\r\n\r\n    function pauseSale() public onlyOwner {\r\n        hasSaleStarted = false;\r\n    }\r\n    \r\n    function withdrawAll() public payable onlyOwner {\r\n        require(payable(msg.sender).send(address(this).balance));\r\n    }\r\n\r\n    function reserveGiveaway(uint256 numPlanets) public onlyOwner {\r\n        uint currentSupply = totalSupply();\r\n        require(totalSupply().add(numPlanets) <= 30, \"Exceeded giveaway supply\");\r\n        uint256 index;\r\n        // Reserved for giveaways and donations to the community\r\n        for (index = 0; index < numPlanets; index++) {\r\n            _safeMint(owner(), currentSupply + index);\r\n        }\r\n    }\r\n}",
  "sourcePath": "D:\\TroversePlanets-nft-project\\contracts\\TroversePlanets.sol",
  "compiler": {
    "name": "solc",
    "version": "0.7.0+commit.9e61f92b.Emscripten.clang"
  },
  "schemaVersion": "3.4.2",
  "updatedAt": "2021-08-13T23:01:08.433Z",
  "devdoc": {
    "kind": "dev",
    "methods": {
      "approve(address,uint256)": {
        "details": "See {IERC721-approve}."
      },
      "balanceOf(address)": {
        "details": "See {IERC721-balanceOf}."
      },
      "baseURI()": {
        "details": "Returns the base URI set via {_setBaseURI}. This will be automatically added as a prefix in {tokenURI} to each token's URI, or to the token ID if no specific URI is set for that token ID."
      },
      "getApproved(uint256)": {
        "details": "See {IERC721-getApproved}."
      },
      "isApprovedForAll(address,address)": {
        "details": "See {IERC721-isApprovedForAll}."
      },
      "name()": {
        "details": "See {IERC721Metadata-name}."
      },
      "owner()": {
        "details": "Returns the address of the current owner."
      },
      "ownerOf(uint256)": {
        "details": "See {IERC721-ownerOf}."
      },
      "renounceOwnership()": {
        "details": "Leaves the contract without owner. It will not be possible to call `onlyOwner` functions anymore. Can only be called by the current owner. NOTE: Renouncing ownership will leave the contract without an owner, thereby removing any functionality that is only available to the owner."
      },
      "safeTransferFrom(address,address,uint256)": {
        "details": "See {IERC721-safeTransferFrom}."
      },
      "safeTransferFrom(address,address,uint256,bytes)": {
        "details": "See {IERC721-safeTransferFrom}."
      },
      "setApprovalForAll(address,bool)": {
        "details": "See {IERC721-setApprovalForAll}."
      },
      "supportsInterface(bytes4)": {
        "details": "See {IERC165-supportsInterface}. Time complexity O(1), guaranteed to always use less than 30 000 gas."
      },
      "symbol()": {
        "details": "See {IERC721Metadata-symbol}."
      },
      "tokenByIndex(uint256)": {
        "details": "See {IERC721Enumerable-tokenByIndex}."
      },
      "tokenOfOwnerByIndex(address,uint256)": {
        "details": "See {IERC721Enumerable-tokenOfOwnerByIndex}."
      },
      "tokenURI(uint256)": {
        "details": "See {IERC721Metadata-tokenURI}."
      },
      "totalSupply()": {
        "details": "See {IERC721Enumerable-totalSupply}."
      },
      "transferFrom(address,address,uint256)": {
        "details": "See {IERC721-transferFrom}."
      },
      "transferOwnership(address)": {
        "details": "Transfers ownership of the contract to a new account (`newOwner`). Can only be called by the current owner."
      }
    },
    "version": 1
  },
  "userdoc": {
    "kind": "user",
    "methods": {},
    "version": 1
  }
}